{
  "_format": "hh-sol-artifact-1",
  "contractName": "CryptoDevToken",
  "sourceName": "contracts/CryptoDevToken.sol",
  "abi": [
    {
      "inputs": [
        {
          "internalType": "address",
          "name": "_cryptoDevsContract",
          "type": "address"
        },
        {
          "internalType": "uint256",
          "name": "fullAmountOfNFTs",
          "type": "uint256"
        }
      ],
      "stateMutability": "nonpayable",
      "type": "constructor"
    },
    {
      "anonymous": false,
      "inputs": [
        {
          "indexed": true,
          "internalType": "address",
          "name": "owner",
          "type": "address"
        },
        {
          "indexed": true,
          "internalType": "address",
          "name": "spender",
          "type": "address"
        },
        {
          "indexed": false,
          "internalType": "uint256",
          "name": "value",
          "type": "uint256"
        }
      ],
      "name": "Approval",
      "type": "event"
    },
    {
      "anonymous": false,
      "inputs": [
        {
          "indexed": true,
          "internalType": "address",
          "name": "previousOwner",
          "type": "address"
        },
        {
          "indexed": true,
          "internalType": "address",
          "name": "newOwner",
          "type": "address"
        }
      ],
      "name": "OwnershipTransferred",
      "type": "event"
    },
    {
      "anonymous": false,
      "inputs": [
        {
          "indexed": true,
          "internalType": "address",
          "name": "from",
          "type": "address"
        },
        {
          "indexed": true,
          "internalType": "address",
          "name": "to",
          "type": "address"
        },
        {
          "indexed": false,
          "internalType": "uint256",
          "name": "value",
          "type": "uint256"
        }
      ],
      "name": "Transfer",
      "type": "event"
    },
    {
      "stateMutability": "payable",
      "type": "fallback"
    },
    {
      "inputs": [
        {
          "internalType": "address",
          "name": "owner",
          "type": "address"
        },
        {
          "internalType": "address",
          "name": "spender",
          "type": "address"
        }
      ],
      "name": "allowance",
      "outputs": [
        {
          "internalType": "uint256",
          "name": "",
          "type": "uint256"
        }
      ],
      "stateMutability": "view",
      "type": "function"
    },
    {
      "inputs": [
        {
          "internalType": "address",
          "name": "spender",
          "type": "address"
        },
        {
          "internalType": "uint256",
          "name": "amount",
          "type": "uint256"
        }
      ],
      "name": "approve",
      "outputs": [
        {
          "internalType": "bool",
          "name": "",
          "type": "bool"
        }
      ],
      "stateMutability": "nonpayable",
      "type": "function"
    },
    {
      "inputs": [],
      "name": "availableToMintTotalSupply",
      "outputs": [
        {
          "internalType": "uint256",
          "name": "",
          "type": "uint256"
        }
      ],
      "stateMutability": "view",
      "type": "function"
    },
    {
      "inputs": [
        {
          "internalType": "address",
          "name": "account",
          "type": "address"
        }
      ],
      "name": "balanceOf",
      "outputs": [
        {
          "internalType": "uint256",
          "name": "",
          "type": "uint256"
        }
      ],
      "stateMutability": "view",
      "type": "function"
    },
    {
      "inputs": [],
      "name": "claim",
      "outputs": [],
      "stateMutability": "nonpayable",
      "type": "function"
    },
    {
      "inputs": [],
      "name": "decimals",
      "outputs": [
        {
          "internalType": "uint8",
          "name": "",
          "type": "uint8"
        }
      ],
      "stateMutability": "view",
      "type": "function"
    },
    {
      "inputs": [
        {
          "internalType": "address",
          "name": "spender",
          "type": "address"
        },
        {
          "internalType": "uint256",
          "name": "subtractedValue",
          "type": "uint256"
        }
      ],
      "name": "decreaseAllowance",
      "outputs": [
        {
          "internalType": "bool",
          "name": "",
          "type": "bool"
        }
      ],
      "stateMutability": "nonpayable",
      "type": "function"
    },
    {
      "inputs": [
        {
          "internalType": "address",
          "name": "spender",
          "type": "address"
        },
        {
          "internalType": "uint256",
          "name": "addedValue",
          "type": "uint256"
        }
      ],
      "name": "increaseAllowance",
      "outputs": [
        {
          "internalType": "bool",
          "name": "",
          "type": "bool"
        }
      ],
      "stateMutability": "nonpayable",
      "type": "function"
    },
    {
      "inputs": [],
      "name": "maxTotalSupply",
      "outputs": [
        {
          "internalType": "uint256",
          "name": "",
          "type": "uint256"
        }
      ],
      "stateMutability": "view",
      "type": "function"
    },
    {
      "inputs": [
        {
          "internalType": "uint256",
          "name": "amount",
          "type": "uint256"
        }
      ],
      "name": "mint",
      "outputs": [],
      "stateMutability": "payable",
      "type": "function"
    },
    {
      "inputs": [],
      "name": "name",
      "outputs": [
        {
          "internalType": "string",
          "name": "",
          "type": "string"
        }
      ],
      "stateMutability": "view",
      "type": "function"
    },
    {
      "inputs": [],
      "name": "owner",
      "outputs": [
        {
          "internalType": "address",
          "name": "",
          "type": "address"
        }
      ],
      "stateMutability": "view",
      "type": "function"
    },
    {
      "inputs": [],
      "name": "renounceOwnership",
      "outputs": [],
      "stateMutability": "nonpayable",
      "type": "function"
    },
    {
      "inputs": [],
      "name": "symbol",
      "outputs": [
        {
          "internalType": "string",
          "name": "",
          "type": "string"
        }
      ],
      "stateMutability": "view",
      "type": "function"
    },
    {
      "inputs": [
        {
          "internalType": "uint256",
          "name": "",
          "type": "uint256"
        }
      ],
      "name": "tokenIdsClaimed",
      "outputs": [
        {
          "internalType": "bool",
          "name": "",
          "type": "bool"
        }
      ],
      "stateMutability": "view",
      "type": "function"
    },
    {
      "inputs": [],
      "name": "tokenPrice",
      "outputs": [
        {
          "internalType": "uint256",
          "name": "",
          "type": "uint256"
        }
      ],
      "stateMutability": "view",
      "type": "function"
    },
    {
      "inputs": [],
      "name": "tokensPerNFT",
      "outputs": [
        {
          "internalType": "uint256",
          "name": "",
          "type": "uint256"
        }
      ],
      "stateMutability": "view",
      "type": "function"
    },
    {
      "inputs": [],
      "name": "totalSupply",
      "outputs": [
        {
          "internalType": "uint256",
          "name": "",
          "type": "uint256"
        }
      ],
      "stateMutability": "view",
      "type": "function"
    },
    {
      "inputs": [
        {
          "internalType": "address",
          "name": "to",
          "type": "address"
        },
        {
          "internalType": "uint256",
          "name": "amount",
          "type": "uint256"
        }
      ],
      "name": "transfer",
      "outputs": [
        {
          "internalType": "bool",
          "name": "",
          "type": "bool"
        }
      ],
      "stateMutability": "nonpayable",
      "type": "function"
    },
    {
      "inputs": [
        {
          "internalType": "address",
          "name": "from",
          "type": "address"
        },
        {
          "internalType": "address",
          "name": "to",
          "type": "address"
        },
        {
          "internalType": "uint256",
          "name": "amount",
          "type": "uint256"
        }
      ],
      "name": "transferFrom",
      "outputs": [
        {
          "internalType": "bool",
          "name": "",
          "type": "bool"
        }
      ],
      "stateMutability": "nonpayable",
      "type": "function"
    },
    {
      "inputs": [
        {
          "internalType": "address",
          "name": "newOwner",
          "type": "address"
        }
      ],
      "name": "transferOwnership",
      "outputs": [],
      "stateMutability": "nonpayable",
      "type": "function"
    },
    {
      "inputs": [],
      "name": "withdraw",
      "outputs": [],
      "stateMutability": "nonpayable",
      "type": "function"
    },
    {
      "stateMutability": "payable",
      "type": "receive"
    }
  ],
  "bytecode": "0x60806040523480156200001157600080fd5b50604051620027a7380380620027a7833981810160405281019062000037919062000396565b6040518060400160405280601081526020017f43727970746f2044657620546f6b656e000000000000000000000000000000008152506040518060400160405280600281526020017f43440000000000000000000000000000000000000000000000000000000000008152508160039080519060200190620000bb92919062000241565b508060049080519060200190620000d492919062000241565b505050620000f7620000eb6200017360201b60201c565b6200017b60201b60201c565b81600760006101000a81548173ffffffffffffffffffffffffffffffffffffffff021916908373ffffffffffffffffffffffffffffffffffffffff160217905550678ac7230489e80000816200014e91906200040c565b69021e19e0c9bab24000006200016591906200046d565b60068190555050506200050d565b600033905090565b6000600560009054906101000a900473ffffffffffffffffffffffffffffffffffffffff16905081600560006101000a81548173ffffffffffffffffffffffffffffffffffffffff021916908373ffffffffffffffffffffffffffffffffffffffff1602179055508173ffffffffffffffffffffffffffffffffffffffff168173ffffffffffffffffffffffffffffffffffffffff167f8be0079c531659141344cd1fd0a4f28419497f9722a3daafe3b4186f6b6457e060405160405180910390a35050565b8280546200024f90620004d7565b90600052602060002090601f016020900481019282620002735760008555620002bf565b82601f106200028e57805160ff1916838001178555620002bf565b82800160010185558215620002bf579182015b82811115620002be578251825591602001919060010190620002a1565b5b509050620002ce9190620002d2565b5090565b5b80821115620002ed576000816000905550600101620002d3565b5090565b600080fd5b600073ffffffffffffffffffffffffffffffffffffffff82169050919050565b60006200032382620002f6565b9050919050565b620003358162000316565b81146200034157600080fd5b50565b60008151905062000355816200032a565b92915050565b6000819050919050565b62000370816200035b565b81146200037c57600080fd5b50565b600081519050620003908162000365565b92915050565b60008060408385031215620003b057620003af620002f1565b5b6000620003c08582860162000344565b9250506020620003d3858286016200037f565b9150509250929050565b7f4e487b7100000000000000000000000000000000000000000000000000000000600052601160045260246000fd5b600062000419826200035b565b915062000426836200035b565b9250817fffffffffffffffffffffffffffffffffffffffffffffffffffffffffffffffff0483118215151615620004625762000461620003dd565b5b828202905092915050565b60006200047a826200035b565b915062000487836200035b565b9250828210156200049d576200049c620003dd565b5b828203905092915050565b7f4e487b7100000000000000000000000000000000000000000000000000000000600052602260045260246000fd5b60006002820490506001821680620004f057607f821691505b60208210811415620005075762000506620004a8565b5b50919050565b61228a806200051d6000396000f3fe6080604052600436106101395760003560e01c80635f3690af116100ab57806395d89b411161006f57806395d89b4114610410578063a0712d681461043b578063a457c2d714610457578063a9059cbb14610494578063dd62ed3e146104d1578063f2fde38b1461050e57610140565b80635f3690af1461032957806370a0823114610366578063715018a6146103a35780637ff9b596146103ba5780638da5cb5b146103e557610140565b8063313ce567116100fd578063313ce5671461023d57806339509351146102685780633ccfd60b146102a55780634e71d92d146102bc5780635603c2d6146102d35780635afcc2f5146102fe57610140565b806306fdde0314610142578063095ea7b31461016d57806318160ddd146101aa57806323b872dd146101d55780632ab4d0521461021257610140565b3661014057005b005b34801561014e57600080fd5b50610157610537565b60405161016491906115a1565b60405180910390f35b34801561017957600080fd5b50610194600480360381019061018f919061165c565b6105c9565b6040516101a191906116b7565b60405180910390f35b3480156101b657600080fd5b506101bf6105ec565b6040516101cc91906116e1565b60405180910390f35b3480156101e157600080fd5b506101fc60048036038101906101f791906116fc565b6105f6565b60405161020991906116b7565b60405180910390f35b34801561021e57600080fd5b50610227610625565b60405161023491906116e1565b60405180910390f35b34801561024957600080fd5b50610252610633565b60405161025f919061176b565b60405180910390f35b34801561027457600080fd5b5061028f600480360381019061028a919061165c565b61063c565b60405161029c91906116b7565b60405180910390f35b3480156102b157600080fd5b506102ba610673565b005b3480156102c857600080fd5b506102d161073d565b005b3480156102df57600080fd5b506102e86109a8565b6040516102f591906116e1565b60405180910390f35b34801561030a57600080fd5b506103136109ae565b60405161032091906116e1565b60405180910390f35b34801561033557600080fd5b50610350600480360381019061034b9190611786565b6109ba565b60405161035d91906116b7565b60405180910390f35b34801561037257600080fd5b5061038d600480360381019061038891906117b3565b6109da565b60405161039a91906116e1565b60405180910390f35b3480156103af57600080fd5b506103b8610a22565b005b3480156103c657600080fd5b506103cf610a36565b6040516103dc91906116e1565b60405180910390f35b3480156103f157600080fd5b506103fa610a41565b60405161040791906117ef565b60405180910390f35b34801561041c57600080fd5b50610425610a6b565b60405161043291906115a1565b60405180910390f35b61045560048036038101906104509190611786565b610afd565b005b34801561046357600080fd5b5061047e6004803603810190610479919061165c565b610bd5565b60405161048b91906116b7565b60405180910390f35b3480156104a057600080fd5b506104bb60048036038101906104b6919061165c565b610c4c565b6040516104c891906116b7565b60405180910390f35b3480156104dd57600080fd5b506104f860048036038101906104f3919061180a565b610c6f565b60405161050591906116e1565b60405180910390f35b34801561051a57600080fd5b50610535600480360381019061053091906117b3565b610cf6565b005b60606003805461054690611879565b80601f016020809104026020016040519081016040528092919081815260200182805461057290611879565b80156105bf5780601f10610594576101008083540402835291602001916105bf565b820191906000526020600020905b8154815290600101906020018083116105a257829003601f168201915b5050505050905090565b6000806105d4610d7a565b90506105e1818585610d82565b600191505092915050565b6000600254905090565b600080610601610d7a565b905061060e858285610f4d565b610619858585610fd9565b60019150509392505050565b69021e19e0c9bab240000081565b60006012905090565b600080610647610d7a565b90506106688185856106598589610c6f565b61066391906118da565b610d82565b600191505092915050565b61067b61125a565b6000610685610a41565b9050600047905060008273ffffffffffffffffffffffffffffffffffffffff16826040516106b290611961565b60006040518083038185875af1925050503d80600081146106ef576040519150601f19603f3d011682016040523d82523d6000602084013e6106f4565b606091505b5050905080610738576040517f08c379a000000000000000000000000000000000000000000000000000000000815260040161072f906119c2565b60405180910390fd5b505050565b6000600760009054906101000a900473ffffffffffffffffffffffffffffffffffffffff1673ffffffffffffffffffffffffffffffffffffffff166370a08231336040518263ffffffff1660e01b815260040161079a91906117ef565b602060405180830381865afa1580156107b7573d6000803e3d6000fd5b505050506040513d601f19601f820116820180604052508101906107db91906119f7565b905060008111610820576040517f08c379a000000000000000000000000000000000000000000000000000000000815260040161081790611a96565b60405180910390fd5b6000805b82811015610943576000600760009054906101000a900473ffffffffffffffffffffffffffffffffffffffff1673ffffffffffffffffffffffffffffffffffffffff16632f745c5933846040518363ffffffff1660e01b815260040161088b929190611ab6565b602060405180830381865afa1580156108a8573d6000803e3d6000fd5b505050506040513d601f19601f820116820180604052508101906108cc91906119f7565b90506008600082815260200190815260200160002060009054906101000a900460ff1661092f5760018361090091906118da565b925060016008600083815260200190815260200160002060006101000a81548160ff0219169083151502179055505b50808061093b90611adf565b915050610824565b5060008111610987576040517f08c379a000000000000000000000000000000000000000000000000000000000815260040161097e90611b9a565b60405180910390fd5b6109a433678ac7230489e800008361099f9190611bba565b6112d8565b5050565b60065481565b678ac7230489e8000081565b60086020528060005260406000206000915054906101000a900460ff1681565b60008060008373ffffffffffffffffffffffffffffffffffffffff1673ffffffffffffffffffffffffffffffffffffffff168152602001908152602001600020549050919050565b610a2a61125a565b610a346000611438565b565b66038d7ea4c6800081565b6000600560009054906101000a900473ffffffffffffffffffffffffffffffffffffffff16905090565b606060048054610a7a90611879565b80601f0160208091040260200160405190810160405280929190818152602001828054610aa690611879565b8015610af35780601f10610ac857610100808354040283529160200191610af3565b820191906000526020600020905b815481529060010190602001808311610ad657829003601f168201915b5050505050905090565b600066038d7ea4c6800082610b129190611bba565b905080341015610b57576040517f08c379a0000000000000000000000000000000000000000000000000000000008152600401610b4e90611c60565b60405180910390fd5b6000670de0b6b3a764000083610b6d9190611bba565b905060065481610b7b6105ec565b610b8591906118da565b1115610bc6576040517f08c379a0000000000000000000000000000000000000000000000000000000008152600401610bbd90611cf2565b60405180910390fd5b610bd033826112d8565b505050565b600080610be0610d7a565b90506000610bee8286610c6f565b905083811015610c33576040517f08c379a0000000000000000000000000000000000000000000000000000000008152600401610c2a90611d84565b60405180910390fd5b610c408286868403610d82565b60019250505092915050565b600080610c57610d7a565b9050610c64818585610fd9565b600191505092915050565b6000600160008473ffffffffffffffffffffffffffffffffffffffff1673ffffffffffffffffffffffffffffffffffffffff16815260200190815260200160002060008373ffffffffffffffffffffffffffffffffffffffff1673ffffffffffffffffffffffffffffffffffffffff16815260200190815260200160002054905092915050565b610cfe61125a565b600073ffffffffffffffffffffffffffffffffffffffff168173ffffffffffffffffffffffffffffffffffffffff161415610d6e576040517f08c379a0000000000000000000000000000000000000000000000000000000008152600401610d6590611e16565b60405180910390fd5b610d7781611438565b50565b600033905090565b600073ffffffffffffffffffffffffffffffffffffffff168373ffffffffffffffffffffffffffffffffffffffff161415610df2576040517f08c379a0000000000000000000000000000000000000000000000000000000008152600401610de990611ea8565b60405180910390fd5b600073ffffffffffffffffffffffffffffffffffffffff168273ffffffffffffffffffffffffffffffffffffffff161415610e62576040517f08c379a0000000000000000000000000000000000000000000000000000000008152600401610e5990611f3a565b60405180910390fd5b80600160008573ffffffffffffffffffffffffffffffffffffffff1673ffffffffffffffffffffffffffffffffffffffff16815260200190815260200160002060008473ffffffffffffffffffffffffffffffffffffffff1673ffffffffffffffffffffffffffffffffffffffff168152602001908152602001600020819055508173ffffffffffffffffffffffffffffffffffffffff168373ffffffffffffffffffffffffffffffffffffffff167f8c5be1e5ebec7d5bd14f71427d1e84f3dd0314c0f7b2291e5b200ac8c7c3b92583604051610f4091906116e1565b60405180910390a3505050565b6000610f598484610c6f565b90507fffffffffffffffffffffffffffffffffffffffffffffffffffffffffffffffff8114610fd35781811015610fc5576040517f08c379a0000000000000000000000000000000000000000000000000000000008152600401610fbc90611fa6565b60405180910390fd5b610fd28484848403610d82565b5b50505050565b600073ffffffffffffffffffffffffffffffffffffffff168373ffffffffffffffffffffffffffffffffffffffff161415611049576040517f08c379a000000000000000000000000000000000000000000000000000000000815260040161104090612038565b60405180910390fd5b600073ffffffffffffffffffffffffffffffffffffffff168273ffffffffffffffffffffffffffffffffffffffff1614156110b9576040517f08c379a00000000000000000000000000000000000000000000000000000000081526004016110b0906120ca565b60405180910390fd5b6110c48383836114fe565b60008060008573ffffffffffffffffffffffffffffffffffffffff1673ffffffffffffffffffffffffffffffffffffffff1681526020019081526020016000205490508181101561114a576040517f08c379a00000000000000000000000000000000000000000000000000000000081526004016111419061215c565b60405180910390fd5b8181036000808673ffffffffffffffffffffffffffffffffffffffff1673ffffffffffffffffffffffffffffffffffffffff16815260200190815260200160002081905550816000808573ffffffffffffffffffffffffffffffffffffffff1673ffffffffffffffffffffffffffffffffffffffff16815260200190815260200160002060008282546111dd91906118da565b925050819055508273ffffffffffffffffffffffffffffffffffffffff168473ffffffffffffffffffffffffffffffffffffffff167fddf252ad1be2c89b69c2b068fc378daa952ba7f163c4a11628f55a4df523b3ef8460405161124191906116e1565b60405180910390a3611254848484611503565b50505050565b611262610d7a565b73ffffffffffffffffffffffffffffffffffffffff16611280610a41565b73ffffffffffffffffffffffffffffffffffffffff16146112d6576040517f08c379a00000000000000000000000000000000000000000000000000000000081526004016112cd906121c8565b60405180910390fd5b565b600073ffffffffffffffffffffffffffffffffffffffff168273ffffffffffffffffffffffffffffffffffffffff161415611348576040517f08c379a000000000000000000000000000000000000000000000000000000000815260040161133f90612234565b60405180910390fd5b611354600083836114fe565b806002600082825461136691906118da565b92505081905550806000808473ffffffffffffffffffffffffffffffffffffffff1673ffffffffffffffffffffffffffffffffffffffff16815260200190815260200160002060008282546113bb91906118da565b925050819055508173ffffffffffffffffffffffffffffffffffffffff16600073ffffffffffffffffffffffffffffffffffffffff167fddf252ad1be2c89b69c2b068fc378daa952ba7f163c4a11628f55a4df523b3ef8360405161142091906116e1565b60405180910390a361143460008383611503565b5050565b6000600560009054906101000a900473ffffffffffffffffffffffffffffffffffffffff16905081600560006101000a81548173ffffffffffffffffffffffffffffffffffffffff021916908373ffffffffffffffffffffffffffffffffffffffff1602179055508173ffffffffffffffffffffffffffffffffffffffff168173ffffffffffffffffffffffffffffffffffffffff167f8be0079c531659141344cd1fd0a4f28419497f9722a3daafe3b4186f6b6457e060405160405180910390a35050565b505050565b505050565b600081519050919050565b600082825260208201905092915050565b60005b83811015611542578082015181840152602081019050611527565b83811115611551576000848401525b50505050565b6000601f19601f8301169050919050565b600061157382611508565b61157d8185611513565b935061158d818560208601611524565b61159681611557565b840191505092915050565b600060208201905081810360008301526115bb8184611568565b905092915050565b600080fd5b600073ffffffffffffffffffffffffffffffffffffffff82169050919050565b60006115f3826115c8565b9050919050565b611603816115e8565b811461160e57600080fd5b50565b600081359050611620816115fa565b92915050565b6000819050919050565b61163981611626565b811461164457600080fd5b50565b60008135905061165681611630565b92915050565b60008060408385031215611673576116726115c3565b5b600061168185828601611611565b925050602061169285828601611647565b9150509250929050565b60008115159050919050565b6116b18161169c565b82525050565b60006020820190506116cc60008301846116a8565b92915050565b6116db81611626565b82525050565b60006020820190506116f660008301846116d2565b92915050565b600080600060608486031215611715576117146115c3565b5b600061172386828701611611565b935050602061173486828701611611565b925050604061174586828701611647565b9150509250925092565b600060ff82169050919050565b6117658161174f565b82525050565b6000602082019050611780600083018461175c565b92915050565b60006020828403121561179c5761179b6115c3565b5b60006117aa84828501611647565b91505092915050565b6000602082840312156117c9576117c86115c3565b5b60006117d784828501611611565b91505092915050565b6117e9816115e8565b82525050565b600060208201905061180460008301846117e0565b92915050565b60008060408385031215611821576118206115c3565b5b600061182f85828601611611565b925050602061184085828601611611565b9150509250929050565b7f4e487b7100000000000000000000000000000000000000000000000000000000600052602260045260246000fd5b6000600282049050600182168061189157607f821691505b602082108114156118a5576118a461184a565b5b50919050565b7f4e487b7100000000000000000000000000000000000000000000000000000000600052601160045260246000fd5b60006118e582611626565b91506118f083611626565b9250827fffffffffffffffffffffffffffffffffffffffffffffffffffffffffffffffff03821115611925576119246118ab565b5b828201905092915050565b600081905092915050565b50565b600061194b600083611930565b91506119568261193b565b600082019050919050565b600061196c8261193e565b9150819050919050565b7f4661696c656420746f2073656e64204574686572000000000000000000000000600082015250565b60006119ac601483611513565b91506119b782611976565b602082019050919050565b600060208201905081810360008301526119db8161199f565b9050919050565b6000815190506119f181611630565b92915050565b600060208284031215611a0d57611a0c6115c3565b5b6000611a1b848285016119e2565b91505092915050565b7f596f7520646f206e6f74206f776e20616e792043727970746f20446576204e4660008201527f5473000000000000000000000000000000000000000000000000000000000000602082015250565b6000611a80602283611513565b9150611a8b82611a24565b604082019050919050565b60006020820190508181036000830152611aaf81611a73565b9050919050565b6000604082019050611acb60008301856117e0565b611ad860208301846116d2565b9392505050565b6000611aea82611626565b91507fffffffffffffffffffffffffffffffffffffffffffffffffffffffffffffffff821415611b1d57611b1c6118ab565b5b600182019050919050565b7f416c6c20746f6b656e73206861766520616c726561647920626520636c61696d60008201527f6564000000000000000000000000000000000000000000000000000000000000602082015250565b6000611b84602283611513565b9150611b8f82611b28565b604082019050919050565b60006020820190508181036000830152611bb381611b77565b9050919050565b6000611bc582611626565b9150611bd083611626565b9250817fffffffffffffffffffffffffffffffffffffffffffffffffffffffffffffffff0483118215151615611c0957611c086118ab565b5b828202905092915050565b7f496e73756666696369656e742066756e64730000000000000000000000000000600082015250565b6000611c4a601283611513565b9150611c5582611c14565b602082019050919050565b60006020820190508181036000830152611c7981611c3d565b9050919050565b7f52657175657374656420616d6f756e742067726561746572207468616e20617660008201527f61696c61626c6520746f6b656e73000000000000000000000000000000000000602082015250565b6000611cdc602e83611513565b9150611ce782611c80565b604082019050919050565b60006020820190508181036000830152611d0b81611ccf565b9050919050565b7f45524332303a2064656372656173656420616c6c6f77616e63652062656c6f7760008201527f207a65726f000000000000000000000000000000000000000000000000000000602082015250565b6000611d6e602583611513565b9150611d7982611d12565b604082019050919050565b60006020820190508181036000830152611d9d81611d61565b9050919050565b7f4f776e61626c653a206e6577206f776e657220697320746865207a65726f206160008201527f6464726573730000000000000000000000000000000000000000000000000000602082015250565b6000611e00602683611513565b9150611e0b82611da4565b604082019050919050565b60006020820190508181036000830152611e2f81611df3565b9050919050565b7f45524332303a20617070726f76652066726f6d20746865207a65726f2061646460008201527f7265737300000000000000000000000000000000000000000000000000000000602082015250565b6000611e92602483611513565b9150611e9d82611e36565b604082019050919050565b60006020820190508181036000830152611ec181611e85565b9050919050565b7f45524332303a20617070726f766520746f20746865207a65726f20616464726560008201527f7373000000000000000000000000000000000000000000000000000000000000602082015250565b6000611f24602283611513565b9150611f2f82611ec8565b604082019050919050565b60006020820190508181036000830152611f5381611f17565b9050919050565b7f45524332303a20696e73756666696369656e7420616c6c6f77616e6365000000600082015250565b6000611f90601d83611513565b9150611f9b82611f5a565b602082019050919050565b60006020820190508181036000830152611fbf81611f83565b9050919050565b7f45524332303a207472616e736665722066726f6d20746865207a65726f20616460008201527f6472657373000000000000000000000000000000000000000000000000000000602082015250565b6000612022602583611513565b915061202d82611fc6565b604082019050919050565b6000602082019050818103600083015261205181612015565b9050919050565b7f45524332303a207472616e7366657220746f20746865207a65726f206164647260008201527f6573730000000000000000000000000000000000000000000000000000000000602082015250565b60006120b4602383611513565b91506120bf82612058565b604082019050919050565b600060208201905081810360008301526120e3816120a7565b9050919050565b7f45524332303a207472616e7366657220616d6f756e742065786365656473206260008201527f616c616e63650000000000000000000000000000000000000000000000000000602082015250565b6000612146602683611513565b9150612151826120ea565b604082019050919050565b6000602082019050818103600083015261217581612139565b9050919050565b7f4f776e61626c653a2063616c6c6572206973206e6f7420746865206f776e6572600082015250565b60006121b2602083611513565b91506121bd8261217c565b602082019050919050565b600060208201905081810360008301526121e1816121a5565b9050919050565b7f45524332303a206d696e7420746f20746865207a65726f206164647265737300600082015250565b600061221e601f83611513565b9150612229826121e8565b602082019050919050565b6000602082019050818103600083015261224d81612211565b905091905056fea264697066735822122092849f35891a779aae5f78e7bb0f19b35ad555aee2eecfec77acc42d201234da64736f6c634300080a0033",
  "linkReferences": {},
  "deployedLinkReferences": {}
}