{
  "_format": "hh-sol-artifact-1",
  "contractName": "Exchange",
  "sourceName": "contracts/Exchange.sol",
  "abi": [
    {
      "inputs": [
        {
          "internalType": "address",
          "name": "_CryptoDevtoken",
          "type": "address"
        }
      ],
      "stateMutability": "nonpayable",
      "type": "constructor"
    },
    {
      "anonymous": false,
      "inputs": [
        {
          "indexed": true,
          "internalType": "address",
          "name": "owner",
          "type": "address"
        },
        {
          "indexed": true,
          "internalType": "address",
          "name": "spender",
          "type": "address"
        },
        {
          "indexed": false,
          "internalType": "uint256",
          "name": "value",
          "type": "uint256"
        }
      ],
      "name": "Approval",
      "type": "event"
    },
    {
      "anonymous": false,
      "inputs": [
        {
          "indexed": true,
          "internalType": "address",
          "name": "from",
          "type": "address"
        },
        {
          "indexed": true,
          "internalType": "address",
          "name": "to",
          "type": "address"
        },
        {
          "indexed": false,
          "internalType": "uint256",
          "name": "value",
          "type": "uint256"
        }
      ],
      "name": "Transfer",
      "type": "event"
    },
    {
      "inputs": [
        {
          "internalType": "uint256",
          "name": "tokenAmount",
          "type": "uint256"
        }
      ],
      "name": "addLiquidity",
      "outputs": [
        {
          "internalType": "uint256",
          "name": "",
          "type": "uint256"
        }
      ],
      "stateMutability": "payable",
      "type": "function"
    },
    {
      "inputs": [
        {
          "internalType": "address",
          "name": "owner",
          "type": "address"
        },
        {
          "internalType": "address",
          "name": "spender",
          "type": "address"
        }
      ],
      "name": "allowance",
      "outputs": [
        {
          "internalType": "uint256",
          "name": "",
          "type": "uint256"
        }
      ],
      "stateMutability": "view",
      "type": "function"
    },
    {
      "inputs": [
        {
          "internalType": "address",
          "name": "spender",
          "type": "address"
        },
        {
          "internalType": "uint256",
          "name": "amount",
          "type": "uint256"
        }
      ],
      "name": "approve",
      "outputs": [
        {
          "internalType": "bool",
          "name": "",
          "type": "bool"
        }
      ],
      "stateMutability": "nonpayable",
      "type": "function"
    },
    {
      "inputs": [
        {
          "internalType": "address",
          "name": "account",
          "type": "address"
        }
      ],
      "name": "balanceOf",
      "outputs": [
        {
          "internalType": "uint256",
          "name": "",
          "type": "uint256"
        }
      ],
      "stateMutability": "view",
      "type": "function"
    },
    {
      "inputs": [],
      "name": "cryptoDevTokenAddress",
      "outputs": [
        {
          "internalType": "address",
          "name": "",
          "type": "address"
        }
      ],
      "stateMutability": "view",
      "type": "function"
    },
    {
      "inputs": [
        {
          "internalType": "uint256",
          "name": "tokensSold",
          "type": "uint256"
        },
        {
          "internalType": "uint256",
          "name": "minEth",
          "type": "uint256"
        }
      ],
      "name": "cryptoDevTokenToEth",
      "outputs": [],
      "stateMutability": "nonpayable",
      "type": "function"
    },
    {
      "inputs": [],
      "name": "decimals",
      "outputs": [
        {
          "internalType": "uint8",
          "name": "",
          "type": "uint8"
        }
      ],
      "stateMutability": "view",
      "type": "function"
    },
    {
      "inputs": [
        {
          "internalType": "address",
          "name": "spender",
          "type": "address"
        },
        {
          "internalType": "uint256",
          "name": "subtractedValue",
          "type": "uint256"
        }
      ],
      "name": "decreaseAllowance",
      "outputs": [
        {
          "internalType": "bool",
          "name": "",
          "type": "bool"
        }
      ],
      "stateMutability": "nonpayable",
      "type": "function"
    },
    {
      "inputs": [
        {
          "internalType": "uint256",
          "name": "minTokens",
          "type": "uint256"
        }
      ],
      "name": "ethToCryptoDevToken",
      "outputs": [],
      "stateMutability": "payable",
      "type": "function"
    },
    {
      "inputs": [
        {
          "internalType": "uint256",
          "name": "inputAmount",
          "type": "uint256"
        },
        {
          "internalType": "uint256",
          "name": "inputReserve",
          "type": "uint256"
        },
        {
          "internalType": "uint256",
          "name": "outputReserve",
          "type": "uint256"
        }
      ],
      "name": "getAmountOfTokens",
      "outputs": [
        {
          "internalType": "uint256",
          "name": "",
          "type": "uint256"
        }
      ],
      "stateMutability": "pure",
      "type": "function"
    },
    {
      "inputs": [],
      "name": "getReserve",
      "outputs": [
        {
          "internalType": "uint256",
          "name": "",
          "type": "uint256"
        }
      ],
      "stateMutability": "view",
      "type": "function"
    },
    {
      "inputs": [
        {
          "internalType": "address",
          "name": "spender",
          "type": "address"
        },
        {
          "internalType": "uint256",
          "name": "addedValue",
          "type": "uint256"
        }
      ],
      "name": "increaseAllowance",
      "outputs": [
        {
          "internalType": "bool",
          "name": "",
          "type": "bool"
        }
      ],
      "stateMutability": "nonpayable",
      "type": "function"
    },
    {
      "inputs": [],
      "name": "name",
      "outputs": [
        {
          "internalType": "string",
          "name": "",
          "type": "string"
        }
      ],
      "stateMutability": "view",
      "type": "function"
    },
    {
      "inputs": [
        {
          "internalType": "uint256",
          "name": "tokenAmount",
          "type": "uint256"
        }
      ],
      "name": "removeLiquidity",
      "outputs": [
        {
          "internalType": "uint256",
          "name": "",
          "type": "uint256"
        },
        {
          "internalType": "uint256",
          "name": "",
          "type": "uint256"
        }
      ],
      "stateMutability": "nonpayable",
      "type": "function"
    },
    {
      "inputs": [],
      "name": "symbol",
      "outputs": [
        {
          "internalType": "string",
          "name": "",
          "type": "string"
        }
      ],
      "stateMutability": "view",
      "type": "function"
    },
    {
      "inputs": [],
      "name": "totalSupply",
      "outputs": [
        {
          "internalType": "uint256",
          "name": "",
          "type": "uint256"
        }
      ],
      "stateMutability": "view",
      "type": "function"
    },
    {
      "inputs": [
        {
          "internalType": "address",
          "name": "to",
          "type": "address"
        },
        {
          "internalType": "uint256",
          "name": "amount",
          "type": "uint256"
        }
      ],
      "name": "transfer",
      "outputs": [
        {
          "internalType": "bool",
          "name": "",
          "type": "bool"
        }
      ],
      "stateMutability": "nonpayable",
      "type": "function"
    },
    {
      "inputs": [
        {
          "internalType": "address",
          "name": "from",
          "type": "address"
        },
        {
          "internalType": "address",
          "name": "to",
          "type": "address"
        },
        {
          "internalType": "uint256",
          "name": "amount",
          "type": "uint256"
        }
      ],
      "name": "transferFrom",
      "outputs": [
        {
          "internalType": "bool",
          "name": "",
          "type": "bool"
        }
      ],
      "stateMutability": "nonpayable",
      "type": "function"
    }
  ],
  "bytecode": "0x60806040523480156200001157600080fd5b5060405162002ec338038062002ec3833981810160405281019062000037919062000259565b6040518060400160405280601281526020017f43727970746f446576204c5020546f6b656e00000000000000000000000000008152506040518060400160405280600481526020017f43444c50000000000000000000000000000000000000000000000000000000008152508160039080519060200190620000bb92919062000192565b508060049080519060200190620000d492919062000192565b505050600073ffffffffffffffffffffffffffffffffffffffff168173ffffffffffffffffffffffffffffffffffffffff1614156200014a576040517f08c379a00000000000000000000000000000000000000000000000000000000081526004016200014190620002ac565b60405180910390fd5b80600560006101000a81548173ffffffffffffffffffffffffffffffffffffffff021916908373ffffffffffffffffffffffffffffffffffffffff16021790555050620003e1565b828054620001a09062000313565b90600052602060002090601f016020900481019282620001c4576000855562000210565b82601f10620001df57805160ff191683800117855562000210565b8280016001018555821562000210579182015b828111156200020f578251825591602001919060010190620001f2565b5b5090506200021f919062000223565b5090565b5b808211156200023e57600081600090555060010162000224565b5090565b6000815190506200025381620003c7565b92915050565b6000602082840312156200026c57600080fd5b60006200027c8482850162000242565b91505092915050565b600062000294602683620002ce565b9150620002a18262000378565b604082019050919050565b60006020820190508181036000830152620002c78162000285565b9050919050565b600082825260208201905092915050565b6000620002ec82620002f3565b9050919050565b600073ffffffffffffffffffffffffffffffffffffffff82169050919050565b600060028204905060018216806200032c57607f821691505b6020821081141562000343576200034262000349565b5b50919050565b7f4e487b7100000000000000000000000000000000000000000000000000000000600052602260045260246000fd5b7f546f6b656e2061646472657373207061737365642069732061206e756c6c206160008201527f6464726573730000000000000000000000000000000000000000000000000000602082015250565b620003d281620002df565b8114620003de57600080fd5b50565b612ad280620003f16000396000f3fe6080604052600436106101095760003560e01c806370a08231116100955780639e7a2922116100645780639e7a2922146103ad578063a457c2d7146103d8578063a9059cbb14610415578063dd62ed3e14610452578063f0566bb71461048f57610109565b806370a08231146102ca5780637386479e1461030757806395d89b41146103445780639c8f9f231461036f57610109565b8063313ce567116100dc578063313ce567146101de578063395093511461020957806351c6590a1461024657806359bf5d39146102765780636c25a25a146102a157610109565b806306fdde031461010e578063095ea7b31461013957806318160ddd1461017657806323b872dd146101a1575b600080fd5b34801561011a57600080fd5b506101236104ab565b604051610130919061207b565b60405180910390f35b34801561014557600080fd5b50610160600480360381019061015b9190611b80565b61053d565b60405161016d9190612060565b60405180910390f35b34801561018257600080fd5b5061018b610560565b60405161019891906122dd565b60405180910390f35b3480156101ad57600080fd5b506101c860048036038101906101c39190611b31565b61056a565b6040516101d59190612060565b60405180910390f35b3480156101ea57600080fd5b506101f3610599565b6040516102009190612321565b60405180910390f35b34801561021557600080fd5b50610230600480360381019061022b9190611b80565b6105a2565b60405161023d9190612060565b60405180910390f35b610260600480360381019061025b9190611be5565b6105d9565b60405161026d91906122dd565b60405180910390f35b34801561028257600080fd5b5061028b6108c1565b60405161029891906122dd565b60405180910390f35b3480156102ad57600080fd5b506102c860048036038101906102c39190611c37565b610973565b005b3480156102d657600080fd5b506102f160048036038101906102ec9190611acc565b610c23565b6040516102fe91906122dd565b60405180910390f35b34801561031357600080fd5b5061032e60048036038101906103299190611c73565b610c6b565b60405161033b91906122dd565b60405180910390f35b34801561035057600080fd5b50610359610d0a565b604051610366919061207b565b60405180910390f35b34801561037b57600080fd5b5061039660048036038101906103919190611be5565b610d9c565b6040516103a49291906122f8565b60405180910390f35b3480156103b957600080fd5b506103c2610ff2565b6040516103cf9190611fe5565b60405180910390f35b3480156103e457600080fd5b506103ff60048036038101906103fa9190611b80565b611018565b60405161040c9190612060565b60405180910390f35b34801561042157600080fd5b5061043c60048036038101906104379190611b80565b61108f565b6040516104499190612060565b60405180910390f35b34801561045e57600080fd5b5061047960048036038101906104749190611af5565b6110b2565b60405161048691906122dd565b60405180910390f35b6104a960048036038101906104a49190611be5565b611139565b005b6060600380546104ba90612500565b80601f01602080910402602001604051908101604052809291908181526020018280546104e690612500565b80156105335780601f1061050857610100808354040283529160200191610533565b820191906000526020600020905b81548152906001019060200180831161051657829003601f168201915b5050505050905090565b600080610548611257565b905061055581858561125f565b600191505092915050565b6000600254905090565b600080610575611257565b905061058285828561142a565b61058d8585856114b6565b60019150509392505050565b60006012905090565b6000806105ad611257565b90506105ce8185856105bf85896110b2565b6105c99190612363565b61125f565b600191505092915050565b600080600047905060006105eb6108c1565b90506000600560009054906101000a900473ffffffffffffffffffffffffffffffffffffffff169050858173ffffffffffffffffffffffffffffffffffffffff166370a08231336040518263ffffffff1660e01b815260040161064e9190611fe5565b60206040518083038186803b15801561066657600080fd5b505afa15801561067a573d6000803e3d6000fd5b505050506040513d601f19601f8201168201806040525081019061069e9190611c0e565b10156106df576040517f08c379a00000000000000000000000000000000000000000000000000000000081526004016106d69061221d565b60405180910390fd5b600082141561078a578073ffffffffffffffffffffffffffffffffffffffff166323b872dd3330896040518463ffffffff1660e01b815260040161072593929190612000565b602060405180830381600087803b15801561073f57600080fd5b505af1158015610753573d6000803e3d6000fd5b505050506040513d601f19601f820116820180604052508101906107779190611bbc565b508293506107853385611737565b6108b5565b600034846107989190612444565b905060008184346107a991906123ea565b6107b391906123b9565b9050808810156107f8576040517f08c379a00000000000000000000000000000000000000000000000000000000081526004016107ef906121fd565b60405180910390fd5b8273ffffffffffffffffffffffffffffffffffffffff166323b872dd3330846040518463ffffffff1660e01b815260040161083593929190612000565b602060405180830381600087803b15801561084f57600080fd5b505af1158015610863573d6000803e3d6000fd5b505050506040513d601f19601f820116820180604052508101906108879190611bbc565b508134610892610560565b61089c91906123ea565b6108a691906123b9565b95506108b23387611737565b50505b83945050505050919050565b6000600560009054906101000a900473ffffffffffffffffffffffffffffffffffffffff1673ffffffffffffffffffffffffffffffffffffffff166370a08231306040518263ffffffff1660e01b815260040161091e9190611fe5565b60206040518083038186803b15801561093657600080fd5b505afa15801561094a573d6000803e3d6000fd5b505050506040513d601f19601f8201168201806040525081019061096e9190611c0e565b905090565b81600560009054906101000a900473ffffffffffffffffffffffffffffffffffffffff1673ffffffffffffffffffffffffffffffffffffffff166370a08231336040518263ffffffff1660e01b81526004016109cf9190611fe5565b60206040518083038186803b1580156109e757600080fd5b505afa1580156109fb573d6000803e3d6000fd5b505050506040513d601f19601f82011682018060405250810190610a1f9190611c0e565b1015610a60576040517f08c379a0000000000000000000000000000000000000000000000000000000008152600401610a57906121dd565b60405180910390fd5b6000610a6a6108c1565b90506000610a79848347610c6b565b905082811015610abe576040517f08c379a0000000000000000000000000000000000000000000000000000000008152600401610ab5906121bd565b60405180910390fd5b600560009054906101000a900473ffffffffffffffffffffffffffffffffffffffff1673ffffffffffffffffffffffffffffffffffffffff166323b872dd3330876040518463ffffffff1660e01b8152600401610b1d93929190612000565b602060405180830381600087803b158015610b3757600080fd5b505af1158015610b4b573d6000803e3d6000fd5b505050506040513d601f19601f82011682018060405250810190610b6f9190611bbc565b5060003373ffffffffffffffffffffffffffffffffffffffff1682604051610b9690611fd0565b60006040518083038185875af1925050503d8060008114610bd3576040519150601f19603f3d011682016040523d82523d6000602084013e610bd8565b606091505b5050905080610c1c576040517f08c379a0000000000000000000000000000000000000000000000000000000008152600401610c139061219d565b60405180910390fd5b5050505050565b60008060008373ffffffffffffffffffffffffffffffffffffffff1673ffffffffffffffffffffffffffffffffffffffff168152602001908152602001600020549050919050565b60008083118015610c7c5750600082115b610cbb576040517f08c379a0000000000000000000000000000000000000000000000000000000008152600401610cb2906120fd565b60405180910390fd5b60006064606386610ccc91906123ea565b610cd691906123b9565b905060008185610ce69190612363565b8483610cf291906123ea565b610cfc91906123b9565b905080925050509392505050565b606060048054610d1990612500565b80601f0160208091040260200160405190810160405280929190818152602001828054610d4590612500565b8015610d925780601f10610d6757610100808354040283529160200191610d92565b820191906000526020600020905b815481529060010190602001808311610d7557829003601f168201915b5050505050905090565b60008060008311610de2576040517f08c379a0000000000000000000000000000000000000000000000000000000008152600401610dd99061215d565b60405180910390fd5b82610dec33610c23565b1015610e2d576040517f08c379a0000000000000000000000000000000000000000000000000000000008152600401610e249061209d565b60405180910390fd5b60004790506000610e3c610560565b8583610e4891906123ea565b610e5291906123b9565b90506000610e5e610560565b86610e676108c1565b610e7191906123ea565b610e7b91906123b9565b905060003373ffffffffffffffffffffffffffffffffffffffff1683604051610ea390611fd0565b60006040518083038185875af1925050503d8060008114610ee0576040519150601f19603f3d011682016040523d82523d6000602084013e610ee5565b606091505b5050905080610f29576040517f08c379a0000000000000000000000000000000000000000000000000000000008152600401610f209061219d565b60405180910390fd5b600560009054906101000a900473ffffffffffffffffffffffffffffffffffffffff1673ffffffffffffffffffffffffffffffffffffffff1663a9059cbb33846040518363ffffffff1660e01b8152600401610f86929190612037565b602060405180830381600087803b158015610fa057600080fd5b505af1158015610fb4573d6000803e3d6000fd5b505050506040513d601f19601f82011682018060405250810190610fd89190611bbc565b50610fe33388611897565b82829550955050505050915091565b600560009054906101000a900473ffffffffffffffffffffffffffffffffffffffff1681565b600080611023611257565b9050600061103182866110b2565b905083811015611076576040517f08c379a000000000000000000000000000000000000000000000000000000000815260040161106d9061229d565b60405180910390fd5b611083828686840361125f565b60019250505092915050565b60008061109a611257565b90506110a78185856114b6565b600191505092915050565b6000600160008473ffffffffffffffffffffffffffffffffffffffff1673ffffffffffffffffffffffffffffffffffffffff16815260200190815260200160002060008373ffffffffffffffffffffffffffffffffffffffff1673ffffffffffffffffffffffffffffffffffffffff16815260200190815260200160002054905092915050565b60006111436108c1565b9050600061115d3434476111579190612444565b84610c6b565b9050828110156111a2576040517f08c379a0000000000000000000000000000000000000000000000000000000008152600401611199906121bd565b60405180910390fd5b600560009054906101000a900473ffffffffffffffffffffffffffffffffffffffff1673ffffffffffffffffffffffffffffffffffffffff1663a9059cbb33836040518363ffffffff1660e01b81526004016111ff929190612037565b602060405180830381600087803b15801561121957600080fd5b505af115801561122d573d6000803e3d6000fd5b505050506040513d601f19601f820116820180604052508101906112519190611bbc565b50505050565b600033905090565b600073ffffffffffffffffffffffffffffffffffffffff168373ffffffffffffffffffffffffffffffffffffffff1614156112cf576040517f08c379a00000000000000000000000000000000000000000000000000000000081526004016112c69061227d565b60405180910390fd5b600073ffffffffffffffffffffffffffffffffffffffff168273ffffffffffffffffffffffffffffffffffffffff16141561133f576040517f08c379a00000000000000000000000000000000000000000000000000000000081526004016113369061211d565b60405180910390fd5b80600160008573ffffffffffffffffffffffffffffffffffffffff1673ffffffffffffffffffffffffffffffffffffffff16815260200190815260200160002060008473ffffffffffffffffffffffffffffffffffffffff1673ffffffffffffffffffffffffffffffffffffffff168152602001908152602001600020819055508173ffffffffffffffffffffffffffffffffffffffff168373ffffffffffffffffffffffffffffffffffffffff167f8c5be1e5ebec7d5bd14f71427d1e84f3dd0314c0f7b2291e5b200ac8c7c3b9258360405161141d91906122dd565b60405180910390a3505050565b600061143684846110b2565b90507fffffffffffffffffffffffffffffffffffffffffffffffffffffffffffffffff81146114b057818110156114a2576040517f08c379a00000000000000000000000000000000000000000000000000000000081526004016114999061213d565b60405180910390fd5b6114af848484840361125f565b5b50505050565b600073ffffffffffffffffffffffffffffffffffffffff168373ffffffffffffffffffffffffffffffffffffffff161415611526576040517f08c379a000000000000000000000000000000000000000000000000000000000815260040161151d9061225d565b60405180910390fd5b600073ffffffffffffffffffffffffffffffffffffffff168273ffffffffffffffffffffffffffffffffffffffff161415611596576040517f08c379a000000000000000000000000000000000000000000000000000000000815260040161158d906120bd565b60405180910390fd5b6115a1838383611a6e565b60008060008573ffffffffffffffffffffffffffffffffffffffff1673ffffffffffffffffffffffffffffffffffffffff16815260200190815260200160002054905081811015611627576040517f08c379a000000000000000000000000000000000000000000000000000000000815260040161161e9061217d565b60405180910390fd5b8181036000808673ffffffffffffffffffffffffffffffffffffffff1673ffffffffffffffffffffffffffffffffffffffff16815260200190815260200160002081905550816000808573ffffffffffffffffffffffffffffffffffffffff1673ffffffffffffffffffffffffffffffffffffffff16815260200190815260200160002060008282546116ba9190612363565b925050819055508273ffffffffffffffffffffffffffffffffffffffff168473ffffffffffffffffffffffffffffffffffffffff167fddf252ad1be2c89b69c2b068fc378daa952ba7f163c4a11628f55a4df523b3ef8460405161171e91906122dd565b60405180910390a3611731848484611a73565b50505050565b600073ffffffffffffffffffffffffffffffffffffffff168273ffffffffffffffffffffffffffffffffffffffff1614156117a7576040517f08c379a000000000000000000000000000000000000000000000000000000000815260040161179e906122bd565b60405180910390fd5b6117b360008383611a6e565b80600260008282546117c59190612363565b92505081905550806000808473ffffffffffffffffffffffffffffffffffffffff1673ffffffffffffffffffffffffffffffffffffffff168152602001908152602001600020600082825461181a9190612363565b925050819055508173ffffffffffffffffffffffffffffffffffffffff16600073ffffffffffffffffffffffffffffffffffffffff167fddf252ad1be2c89b69c2b068fc378daa952ba7f163c4a11628f55a4df523b3ef8360405161187f91906122dd565b60405180910390a361189360008383611a73565b5050565b600073ffffffffffffffffffffffffffffffffffffffff168273ffffffffffffffffffffffffffffffffffffffff161415611907576040517f08c379a00000000000000000000000000000000000000000000000000000000081526004016118fe9061223d565b60405180910390fd5b61191382600083611a6e565b60008060008473ffffffffffffffffffffffffffffffffffffffff1673ffffffffffffffffffffffffffffffffffffffff16815260200190815260200160002054905081811015611999576040517f08c379a0000000000000000000000000000000000000000000000000000000008152600401611990906120dd565b60405180910390fd5b8181036000808573ffffffffffffffffffffffffffffffffffffffff1673ffffffffffffffffffffffffffffffffffffffff1681526020019081526020016000208190555081600260008282546119f09190612444565b92505081905550600073ffffffffffffffffffffffffffffffffffffffff168373ffffffffffffffffffffffffffffffffffffffff167fddf252ad1be2c89b69c2b068fc378daa952ba7f163c4a11628f55a4df523b3ef84604051611a5591906122dd565b60405180910390a3611a6983600084611a73565b505050565b505050565b505050565b600081359050611a8781612a57565b92915050565b600081519050611a9c81612a6e565b92915050565b600081359050611ab181612a85565b92915050565b600081519050611ac681612a85565b92915050565b600060208284031215611ade57600080fd5b6000611aec84828501611a78565b91505092915050565b60008060408385031215611b0857600080fd5b6000611b1685828601611a78565b9250506020611b2785828601611a78565b9150509250929050565b600080600060608486031215611b4657600080fd5b6000611b5486828701611a78565b9350506020611b6586828701611a78565b9250506040611b7686828701611aa2565b9150509250925092565b60008060408385031215611b9357600080fd5b6000611ba185828601611a78565b9250506020611bb285828601611aa2565b9150509250929050565b600060208284031215611bce57600080fd5b6000611bdc84828501611a8d565b91505092915050565b600060208284031215611bf757600080fd5b6000611c0584828501611aa2565b91505092915050565b600060208284031215611c2057600080fd5b6000611c2e84828501611ab7565b91505092915050565b60008060408385031215611c4a57600080fd5b6000611c5885828601611aa2565b9250506020611c6985828601611aa2565b9150509250929050565b600080600060608486031215611c8857600080fd5b6000611c9686828701611aa2565b9350506020611ca786828701611aa2565b9250506040611cb886828701611aa2565b9150509250925092565b611ccb81612478565b82525050565b611cda8161248a565b82525050565b6000611ceb8261233c565b611cf58185612352565b9350611d058185602086016124cd565b611d0e816125bf565b840191505092915050565b6000611d26603483612352565b9150611d31826125d0565b604082019050919050565b6000611d49602383612352565b9150611d548261261f565b604082019050919050565b6000611d6c602283612352565b9150611d778261266e565b604082019050919050565b6000611d8f601083612352565b9150611d9a826126bd565b602082019050919050565b6000611db2602283612352565b9150611dbd826126e6565b604082019050919050565b6000611dd5601d83612352565b9150611de082612735565b602082019050919050565b6000611df8602783612352565b9150611e038261275e565b604082019050919050565b6000611e1b602683612352565b9150611e26826127ad565b604082019050919050565b6000611e3e601483612352565b9150611e49826127fc565b602082019050919050565b6000611e61601a83612352565b9150611e6c82612825565b602082019050919050565b6000611e84601983612352565b9150611e8f8261284e565b602082019050919050565b6000611ea7603183612352565b9150611eb282612877565b604082019050919050565b6000611eca601c83612352565b9150611ed5826128c6565b602082019050919050565b6000611eed602183612352565b9150611ef8826128ef565b604082019050919050565b6000611f10602583612352565b9150611f1b8261293e565b604082019050919050565b6000611f33600083612347565b9150611f3e8261298d565b600082019050919050565b6000611f56602483612352565b9150611f6182612990565b604082019050919050565b6000611f79602583612352565b9150611f84826129df565b604082019050919050565b6000611f9c601f83612352565b9150611fa782612a2e565b602082019050919050565b611fbb816124b6565b82525050565b611fca816124c0565b82525050565b6000611fdb82611f26565b9150819050919050565b6000602082019050611ffa6000830184611cc2565b92915050565b60006060820190506120156000830186611cc2565b6120226020830185611cc2565b61202f6040830184611fb2565b949350505050565b600060408201905061204c6000830185611cc2565b6120596020830184611fb2565b9392505050565b60006020820190506120756000830184611cd1565b92915050565b600060208201905081810360008301526120958184611ce0565b905092915050565b600060208201905081810360008301526120b681611d19565b9050919050565b600060208201905081810360008301526120d681611d3c565b9050919050565b600060208201905081810360008301526120f681611d5f565b9050919050565b6000602082019050818103600083015261211681611d82565b9050919050565b6000602082019050818103600083015261213681611da5565b9050919050565b6000602082019050818103600083015261215681611dc8565b9050919050565b6000602082019050818103600083015261217681611deb565b9050919050565b6000602082019050818103600083015261219681611e0e565b9050919050565b600060208201905081810360008301526121b681611e31565b9050919050565b600060208201905081810360008301526121d681611e54565b9050919050565b600060208201905081810360008301526121f681611e77565b9050919050565b6000602082019050818103600083015261221681611e9a565b9050919050565b6000602082019050818103600083015261223681611ebd565b9050919050565b6000602082019050818103600083015261225681611ee0565b9050919050565b6000602082019050818103600083015261227681611f03565b9050919050565b6000602082019050818103600083015261229681611f49565b9050919050565b600060208201905081810360008301526122b681611f6c565b9050919050565b600060208201905081810360008301526122d681611f8f565b9050919050565b60006020820190506122f26000830184611fb2565b92915050565b600060408201905061230d6000830185611fb2565b61231a6020830184611fb2565b9392505050565b60006020820190506123366000830184611fc1565b92915050565b600081519050919050565b600081905092915050565b600082825260208201905092915050565b600061236e826124b6565b9150612379836124b6565b9250827fffffffffffffffffffffffffffffffffffffffffffffffffffffffffffffffff038211156123ae576123ad612532565b5b828201905092915050565b60006123c4826124b6565b91506123cf836124b6565b9250826123df576123de612561565b5b828204905092915050565b60006123f5826124b6565b9150612400836124b6565b9250817fffffffffffffffffffffffffffffffffffffffffffffffffffffffffffffffff048311821515161561243957612438612532565b5b828202905092915050565b600061244f826124b6565b915061245a836124b6565b92508282101561246d5761246c612532565b5b828203905092915050565b600061248382612496565b9050919050565b60008115159050919050565b600073ffffffffffffffffffffffffffffffffffffffff82169050919050565b6000819050919050565b600060ff82169050919050565b60005b838110156124eb5780820151818401526020810190506124d0565b838111156124fa576000848401525b50505050565b6000600282049050600182168061251857607f821691505b6020821081141561252c5761252b612590565b5b50919050565b7f4e487b7100000000000000000000000000000000000000000000000000000000600052601160045260246000fd5b7f4e487b7100000000000000000000000000000000000000000000000000000000600052601260045260246000fd5b7f4e487b7100000000000000000000000000000000000000000000000000000000600052602260045260246000fd5b6000601f19601f8301169050919050565b7f557365722063616e206e6f74207265747269657665206d6f726520746f6b656e60008201527f73207468616e2077686174206973206f776e6564000000000000000000000000602082015250565b7f45524332303a207472616e7366657220746f20746865207a65726f206164647260008201527f6573730000000000000000000000000000000000000000000000000000000000602082015250565b7f45524332303a206275726e20616d6f756e7420657863656564732062616c616e60008201527f6365000000000000000000000000000000000000000000000000000000000000602082015250565b7f496e76616c696420726573657276657300000000000000000000000000000000600082015250565b7f45524332303a20617070726f766520746f20746865207a65726f20616464726560008201527f7373000000000000000000000000000000000000000000000000000000000000602082015250565b7f45524332303a20696e73756666696369656e7420616c6c6f77616e6365000000600082015250565b7f746f6b656e416d6f756e742073686f756c64206265206772656174657220746860008201527f616e207a65726f00000000000000000000000000000000000000000000000000602082015250565b7f45524332303a207472616e7366657220616d6f756e742065786365656473206260008201527f616c616e63650000000000000000000000000000000000000000000000000000602082015250565b7f4661696c656420746f2073656e64204574686572000000000000000000000000600082015250565b7f496e73756666696369656e74206f757470757420616d6f756e74000000000000600082015250565b7f4e6f7420656e6f75676820746f6b656e7320746f2073656c6c00000000000000600082015250565b7f596f75206d75737420616464206d6f726520434420746f206d6174636820746860008201527f65206c697175696469747920726174696f000000000000000000000000000000602082015250565b7f596f7520646f6e2774206861766520656e6f75676820746f6b656e7300000000600082015250565b7f45524332303a206275726e2066726f6d20746865207a65726f2061646472657360008201527f7300000000000000000000000000000000000000000000000000000000000000602082015250565b7f45524332303a207472616e736665722066726f6d20746865207a65726f20616460008201527f6472657373000000000000000000000000000000000000000000000000000000602082015250565b50565b7f45524332303a20617070726f76652066726f6d20746865207a65726f2061646460008201527f7265737300000000000000000000000000000000000000000000000000000000602082015250565b7f45524332303a2064656372656173656420616c6c6f77616e63652062656c6f7760008201527f207a65726f000000000000000000000000000000000000000000000000000000602082015250565b7f45524332303a206d696e7420746f20746865207a65726f206164647265737300600082015250565b612a6081612478565b8114612a6b57600080fd5b50565b612a778161248a565b8114612a8257600080fd5b50565b612a8e816124b6565b8114612a9957600080fd5b5056fea2646970667358221220914ebfec2d536b5e226d7c89b490720f2e9e8c73a2c606295a44ffc632afb60a64736f6c63430008040033",
  "linkReferences": {},
  "deployedLinkReferences": {}
}